{
  "contractName": "Fadhili",
  "abi": [
    {
      "inputs": [],
      "stateMutability": "nonpayable",
      "type": "constructor"
    },
    {
      "inputs": [],
      "name": "donationCount",
      "outputs": [
        {
          "internalType": "uint256",
          "name": "",
          "type": "uint256"
        }
      ],
      "stateMutability": "view",
      "type": "function"
    },
    {
      "inputs": [
        {
          "internalType": "uint256",
          "name": "",
          "type": "uint256"
        }
      ],
      "name": "donations",
      "outputs": [
        {
          "internalType": "uint256",
          "name": "id",
          "type": "uint256"
        },
        {
          "internalType": "string",
          "name": "donation",
          "type": "string"
        },
        {
          "internalType": "string",
          "name": "category",
          "type": "string"
        },
        {
          "internalType": "bool",
          "name": "completed",
          "type": "bool"
        }
      ],
      "stateMutability": "view",
      "type": "function"
    },
    {
      "inputs": [
        {
          "internalType": "string",
          "name": "_donation",
          "type": "string"
        },
        {
          "internalType": "string",
          "name": "_category",
          "type": "string"
        }
      ],
      "name": "createDonation",
      "outputs": [],
      "stateMutability": "nonpayable",
      "type": "function"
    }
  ],
  "bytecode": "0x60806040526000805534801561001457600080fd5b5061008f6040518060400160405280600581526020017f302e3030320000000000000000000000000000000000000000000000000000008152506040518060400160405280600481526020017f466f6f640000000000000000000000000000000000000000000000000000000081525061009460201b60201c565b6102d4565b6000808154809291906100a69061022c565b91905055506040518060800160405280600054815260200183815260200182815260200160001515815250600160008054815260200190815260200160002060008201518160000155602082015181600101908051906020019061010b929190610150565b506040820151816002019080519060200190610128929190610150565b5060608201518160030160006101000a81548160ff0219169083151502179055509050505050565b82805461015c906102a3565b90600052602060002090601f01602090048101928261017e57600085556101c5565b82601f1061019757805160ff19168380011785556101c5565b828001600101855582156101c5579182015b828111156101c45782518255916020019190600101906101a9565b5b5090506101d291906101d6565b5090565b5b808211156101ef5760008160009055506001016101d7565b5090565b7f4e487b7100000000000000000000000000000000000000000000000000000000600052601160045260246000fd5b6000819050919050565b600061023782610222565b91507fffffffffffffffffffffffffffffffffffffffffffffffffffffffffffffffff8203610269576102686101f3565b5b600182019050919050565b7f4e487b7100000000000000000000000000000000000000000000000000000000600052602260045260246000fd5b600060028204905060018216806102bb57607f821691505b6020821081036102ce576102cd610274565b5b50919050565b6107c780620002e46000396000f3fe608060405234801561001057600080fd5b50600436106100415760003560e01c80632abfab4d14610046578063559402f314610064578063f8626af814610080575b600080fd5b61004e6100b3565b60405161005b919061037e565b60405180910390f35b61007e600480360381019061007991906104f3565b6100b9565b005b61009a60048036038101906100959190610597565b610175565b6040516100aa9493929190610667565b60405180910390f35b60005481565b6000808154809291906100cb906106e9565b9190505550604051806080016040528060005481526020018381526020018281526020016000151581525060016000805481526020019081526020016000206000820151816000015560208201518160010190805190602001906101309291906102c2565b50604082015181600201908051906020019061014d9291906102c2565b5060608201518160030160006101000a81548160ff0219169083151502179055509050505050565b600160205280600052604060002060009150905080600001549080600101805461019e90610760565b80601f01602080910402602001604051908101604052809291908181526020018280546101ca90610760565b80156102175780601f106101ec57610100808354040283529160200191610217565b820191906000526020600020905b8154815290600101906020018083116101fa57829003601f168201915b50505050509080600201805461022c90610760565b80601f016020809104026020016040519081016040528092919081815260200182805461025890610760565b80156102a55780601f1061027a576101008083540402835291602001916102a5565b820191906000526020600020905b81548152906001019060200180831161028857829003601f168201915b5050505050908060030160009054906101000a900460ff16905084565b8280546102ce90610760565b90600052602060002090601f0160209004810192826102f05760008555610337565b82601f1061030957805160ff1916838001178555610337565b82800160010185558215610337579182015b8281111561033657825182559160200191906001019061031b565b5b5090506103449190610348565b5090565b5b80821115610361576000816000905550600101610349565b5090565b6000819050919050565b61037881610365565b82525050565b6000602082019050610393600083018461036f565b92915050565b6000604051905090565b600080fd5b600080fd5b600080fd5b600080fd5b6000601f19601f8301169050919050565b7f4e487b7100000000000000000000000000000000000000000000000000000000600052604160045260246000fd5b610400826103b7565b810181811067ffffffffffffffff8211171561041f5761041e6103c8565b5b80604052505050565b6000610432610399565b905061043e82826103f7565b919050565b600067ffffffffffffffff82111561045e5761045d6103c8565b5b610467826103b7565b9050602081019050919050565b82818337600083830152505050565b600061049661049184610443565b610428565b9050828152602081018484840111156104b2576104b16103b2565b5b6104bd848285610474565b509392505050565b600082601f8301126104da576104d96103ad565b5b81356104ea848260208601610483565b91505092915050565b6000806040838503121561050a576105096103a3565b5b600083013567ffffffffffffffff811115610528576105276103a8565b5b610534858286016104c5565b925050602083013567ffffffffffffffff811115610555576105546103a8565b5b610561858286016104c5565b9150509250929050565b61057481610365565b811461057f57600080fd5b50565b6000813590506105918161056b565b92915050565b6000602082840312156105ad576105ac6103a3565b5b60006105bb84828501610582565b91505092915050565b600081519050919050565b600082825260208201905092915050565b60005b838110156105fe5780820151818401526020810190506105e3565b8381111561060d576000848401525b50505050565b600061061e826105c4565b61062881856105cf565b93506106388185602086016105e0565b610641816103b7565b840191505092915050565b60008115159050919050565b6106618161064c565b82525050565b600060808201905061067c600083018761036f565b818103602083015261068e8186610613565b905081810360408301526106a28185610613565b90506106b16060830184610658565b95945050505050565b7f4e487b7100000000000000000000000000000000000000000000000000000000600052601160045260246000fd5b60006106f482610365565b91507fffffffffffffffffffffffffffffffffffffffffffffffffffffffffffffffff8203610726576107256106ba565b5b600182019050919050565b7f4e487b7100000000000000000000000000000000000000000000000000000000600052602260045260246000fd5b6000600282049050600182168061077857607f821691505b60208210810361078b5761078a610731565b5b5091905056fea264697066735822122013ba530ca62ffe64a6f46ab3371bddfb49071f70693ea372ed3b444303d7144f64736f6c634300080d0033",
  "immutableReferences": {},
  "source": "pragma solidity >=0.7.0 <0.9.0;\r\n\r\ncontract Fadhili{\r\n    uint public donationCount = 0;\r\n\r\n    constructor() public {\r\n        createDonation('0.002', 'Food');\r\n    }\r\n\r\n    struct Donate{\r\n        uint id;\r\n        string donation;\r\n        string category;\r\n        bool completed;\r\n    }\r\n\r\n    //create mapping \r\n    //creates key value pairs that get stored on the blockchain\r\n    mapping(uint => Donate) public donations;\r\n\r\n    //function for creating the donations\r\n    function createDonation(string memory _donation, string memory _category) public {\r\n        donationCount ++;\r\n        //store donation on the blockchain by adding it to the donations mapping\r\n        donations[donationCount] = Donate(donationCount, _donation, _category, false);\r\n    }\r\n\r\n    struct Receive{\r\n        uint id;\r\n        string fundreceived;\r\n        string category;\r\n        bool beneficial;\r\n    }\r\n}\r\n",
  "sourcePath": "E:\\fadhili\\contracts\\contracts\\Fadhili.sol",
  "compiler": {
    "name": "solc",
    "version": "0.8.13+commit.abaa5c0e.Emscripten.clang"
  },
  "schemaVersion": "3.4.7",
  "updatedAt": "2022-04-09T23:14:31.071Z",
  "devdoc": {
    "kind": "dev",
    "methods": {},
    "version": 1
  },
  "userdoc": {
    "kind": "user",
    "methods": {},
    "version": 1
  }
}